:020000040800F2
:10000000B0040020A1010008731900083B14000887
:1000100071190008ED0200086521000800000000C9
:10002000000000000000000000000000871C000825
:10003000EF0200080000000075190008891C000884
:10004000BB010008BB010008BB010008BB010008A0
:10005000BB010008BB010008BB010008BB01000890
:10006000BB010008BB010008BB010008BB01000880
:10007000BB010008BB010008BB010008BB01000870
:10008000BB010008BB010008BB010008BB01000860
:10009000BB010008BB010008BB010008BB01000850
:1000A000BB010008BB010008BB010008BB01000840
:1000B000BB010008BB010008BB010008BB01000830
:1000C000BB010008BB010008BB010008BB01000820
:1000D000BB010008BB010008BB010008BB01000810
:1000E000F1020008BB010008BB010008BB010008C9
:1000F000BB010008BB010008BB010008BB010008F0
:10010000BB010008BB010008BB010008BB010008DF
:10011000BB010008BB010008BB010008BB010008CF
:10012000BB010008BB010008BB010008BB010008BF
:10013000BB010008BB010008BB010008BB010008AF
:10014000BB010008BB010008BB010008BB0100089F
:10015000BB010008BB010008BB010008BB0100088F
:10016000BB010008BB010008BB010008BB0100087F
:10017000BB010008BB010008BB0100080000000033
:10018000BB010008BB010008DFF810D000F09CF8AC
:1001900000480047F1250008AFF30080B0040020BC
:1001A0000648804706480047FEE7FEE7FEE7FEE711
:1001B000FEE7FEE7FEE7FEE7FEE7FEE7191D0008A3
:1001C000890100082DE9F05F0546002092469B4614
:1001D00088460646814640241BE02846414647465D
:1001E000224600F061F853465A46C01A914110D396
:1001F00011461846224600F048F82D1A67EB010810
:100200004F4622460120002100F03FF817EB00097D
:100210004E41201EA4F10104DFDC484631462A4647
:10022000434600F000B830BCBDE8C09FD2B201E048
:1002300000F8012B491EFBD270470022F6E710B5EB
:1002400013460A4604461946FFF7F0FF204610BD44
:10025000421C10F8011B0029FBD1801A704730B5F1
:100260000B46014600202022012409E021FA02F574
:100270009D4205D303FA02F5491B04FA02F528440E
:10028000151EA2F10102F1DC30BD202A04DB203A68
:1002900000FA02F1002070479140C2F1200320FAD9
:1002A00003F3194390407047202A04DB203A21FAD7
:1002B00002F00021704721FA02F3D040C2F120027F
:1002C0009140084319467047064C074D06E0E06828
:1002D00040F0010394E8070098471034AC42F6D38D
:1002E000FFF756FF0C2900082C290008FEE770478D
:1002F0004FF4005000F030B872B6FEE770B5044617
:1003000000F07CF90546601C02D0044800780444E3
:1003100000F074F9401BA042FAD370BD0000002029
:1003200070B54FF400544FF09045A0420BD114200B
:1003300002F02AF92146074800F04DF918B92021AA
:10034000284600F04DF92846BDE87040402100F0F5
:1003500047B9000000080048044910B50A68024285
:1003600002D00860FFF7DCFF10BD0000140401405C
:100370002DE9F04FDFF83492002309F1040A01243B
:1003800003250AF1040B87B00F270BF1040E04E1DB
:1003900004FA03F632407CD0D1F804C0BCF1010F5E
:1003A00008D0BCF1020F05D0BCF1110F02D0BCF196
:1003B000120F29D1D0F808C0CDF800C04FEA430C85
:1003C00005FA0CF8CDF80CC0DDF800C02CEA080CDA
:1003D000CDF800C0D1F80C80DDF80CC008FA0CF89C
:1003E000DDF800C048EA0C08C0F80880D0F80480A6
:1003F00091F804C028EA0608CCF3001C0CFA03FCB0
:100400004CEA080CC0F804C0D1F804806FEA080C6C
:100410005FEA8C7C09D1D0F82CC02CEA060CC8F31A
:10042000C0069E4046EA0C06C662D0F80CC04FEAF1
:10043000430805FA08F62CEA060CCDF8148002965B
:100440008E6806FA08F646EA0C06C6604E68022E6A
:1004500001D0122E15D1DE0800EB86060396366A0F
:100460004FEA437C4FEADC6807FA08FC26EA0C06F0
:10047000D1F810C00CFA08FC4CEA060C039EC6F832
:1004800020C00668DDF808C026EA0C0691F804C012
:1004900000E081E0DDF814800CF0030C0CFA08FC9D
:1004A0004CEA060CC0F800C04E68F60074D5404E09
:1004B000D6F860C04CF0010CC6F860C0366E23F070
:1004C000030C06F0010600963A4E66440296D6F8F2
:1004D00008C09E074FEA167807FA08F62CEA060CC1
:1004E000B0F1904F04D0344EB04203D101261BE04E
:1004F000002619E0314EB04201D1022614E0304E00
:10050000B04201D103260FE02E4EB04201D10426A5
:100510000AE02D4EB04201D1052605E02B4EB04237
:1005200001D1062600E0072606FA08F646EA0C0680
:10053000DDF808C0CCF80860D9F80060CC46D1F8E6
:10054000048096435FEAC83800D51643CCF80060B3
:10055000DAF80060D446D1F8048096435FEA883820
:1005600000D51643CCF80060DBF80060DC46D1F81B
:10057000048096435FEAC82800D51643CCF8006093
:10058000DEF80060F446D1F8048096435FEA8828DC
:1005900000D51643CCF800605B1C0A6832FA03F6FB
:1005A0007FF4F6AE07B000F013B80000000401407D
:1005B000001002400000014000040048000800480C
:1005C000000C0048001000480014004800180048C3
:1005D00030BCBDE8C08F0069084000D001207047E2
:1005E000426921EA02030A4043EA024181617047FD
:1005F0000AB18161704781627047000001488068DC
:100600007047000000000020024881680278114411
:100610008160704700000020094810B5016800247F
:1006200041F480710160032000F072F8002000F0B6
:1006300009F808B1012401E000F026F8204610BDB9
:100640000020024070B50E4E05460024307898B167
:100650004FF47A71B1FBF0F00A490968B1FBF0F090
:1006600000F016FE40B9102D06D200222946501E79
:1006700000F02EF8756000E00124204670BD0000F7
:10068000000000200C000020094808B5016E41F070
:1006900001010166016E01F001010091816D41F0DF
:1006A00080518165806D00F08050009008BD000091
:1006B00000100240002809DB00F01F0201219140D8
:1006C0004009800000F1E020C0F8001170470000F0
:1006D000F0B40E4B1B680C46C3F30223C3F10705AD
:1006E000042D00D90425191D072901D2002300E09B
:1006F000DB1E012606FA05F1491E214099409E4065
:10070000761E16403143F0BC01F06CBE0CED00E0EB
:10071000064900F0070208684FF6FF03184040EA58
:100720000220034A10430860704700000CED00E00F
:100730000000FA051649B0F5007F0868C0F34120B3
:1007400009D0022805D0086820F4C06040F4806019
:100750000860002070470128FBD0086820F4C060C2
:1007600040F4007008600B483222006850430A4A87
:10077000B0FBF2F0401C00E0401E4A69520501D572
:100780000028F9D148694005E3D5032070470000EF
:10079000007000400C00002040420F00024800683A
:1007A00000F4C06070470000007000402DE9F84F71
:1007B000044600270088E54D3E46010504F1200B64
:1007C0001DD5606E78B1B0F5800F11D0B0F5000F77
:1007D00004D0B0F5400F22D001270FE0E86840F4C4
:1007E0008030E8601BE00021201D01F0C5F803E027
:1007F0000021584601F056F9070010D03E462088E7
:10080000C00426D5A06EC0B1B0F1807F1AD0B0F17F
:10081000007F0DD0B0F1407F19D0012718E0D5F846
:100820008800616E20F440000843C5F88800E6E7C0
:10083000E86840F48030E86009E00021201D01F004
:100840009BF803E00021584601F02CF90746F7B168
:100850003E46206880033AD5A86D4FF00008C000DE
:1008600009D4A86D40F08050A865A86D4FF001082C
:1008700000F080500090DFF8D8A2DAF8001041F4C0
:100880008071CAF80010FFF7B9FE814610E0D5F874
:100890008800A16E20F040700843C5F88800D8E7B2
:1008A000FFF7ACFEA0EB0900022801D9032705E001
:1008B000DAF80000C005F3D5002F7CD04FEA070618
:1008C000B8F1000F03D0A86D20F08050A865207803
:1008D000C00707D0D5F88800A16B20F003000843BB
:1008E000C5F888002078800707D5D5F88800E16B27
:1008F00020F00C000843C5F888002078400707D591
:10090000D5F88800216C20F030000843C5F8880035
:100910002078000707D5D5F88800616C20F0C0006A
:100920000843C5F888002078C00607D5D5F88800A8
:10093000A16C20F440700843C5F888002078800638
:1009400007D5D5F88800E16C20F440600843C5F86D
:1009500088002088800507D5D5F88800E16D20F44F
:1009600040200843C5F888002088400507D5D5F801
:100970008800216E20F440100843C5F888002078D4
:10098000400607D5D5F88800216D20F44050084373
:10099000C5F888002078000607D5D5F88800616D75
:1009A00020F440400843C5F888002088C00509D5D8
:1009B000D5F8880000E01CE0A16D20F44030084329
:1009C000C5F8880020884FF0006780044FF08068E9
:1009D0004FD5D5F88800E16E20F040600843C5F897
:1009E0008800E06EB8423CD1E86840F48010E860CE
:1009F0003FE0D5F8900010F4407015D0D4F8841082
:100A0000814211D0D5F89000D5F8901020F44070B4
:100A100041F48031C5F89010D5F8901021F4803160
:100A2000C5F89010C5F89000C00710D0FFF7E6FD9C
:100A3000074641F2883906E0FFF7E0FDC11B494552
:100A400001D903263CE7D5F890008007F4D5D5F806
:100A50009000D4F8841020F440700843C5F890004A
:100A60002EE7404505D10121201D00F085FF00B192
:100A700006462068000317D5D5F88800216F20F0BE
:100A800040600843C5F88800206FB84204D1E86888
:100A900040F48010E86007E0404505D10121201DA9
:100AA00000F06AFF00B106462068400317D5D5F86C
:100AB0008800616F20F040600843C5F88800606FCF
:100AC000B84204D1E86840F48010E86007E040458F
:100AD00005D10121201D00F04FFF00B106462088FE
:100AE00040041AD5D5F88800A16F20F04050084383
:100AF000C5F88800A06FB0F1805F03D0B0F1005F4F
:100B000005D00AE00221201D00F036FF03E002219B
:100B1000584600F0C7FF00B106462088000407D5FC
:100B2000D5F88800E16F20F080400843C5F88800C0
:100B30002068C00307D555F8880FD4F8801020F03E
:100B4000004008432860304600F004B8001002401E
:100B50000070004018BCBDE8E08F00002DE9F047B0
:100B60000F46050058D0404E306800F00700B842EC
:100B700009D2306820F0070038433060306800F058
:100B80000700B84248D12878384CC0072CD0686894
:100B9000032811D0022812D0216898B149050029F4
:100BA0003ADAA16821F003010143A160FFF726FDB5
:100BB000804641F2883910E021688901EFE7216819
:100BC0008903ECE78907EAE7FFF718FDA0EB0801C6
:100BD000494502D90320BDE8F087A068696800F0A4
:100BE0000C00B0EB810FEFD12878800705D5A06805
:100BF000A96820F0F0000843A060306800F007000A
:100C0000B8420BD9306820F00700384330603068B4
:100C100000F00700B84201D00120DCE72878400747
:100C200005D5A068E96820F4E0600843A060287852
:100C3000000706D5A068296920F4605040EAC10089
:100C4000A06000F03FF8A168094AC1F30311515CAC
:100C500001F01F01C8400749086007480068BDE867
:100C6000F047FFF7EFBC00000020024000100240F8
:100C7000C42800080C000020040000200548064994
:100C800000688968054AC1F30221515C01F01F0127
:100C9000C84070470C0000200010024004290008E2
:100CA0000548064900688968054AC1F3C221515CBC
:100CB00001F01F01C84070470C00002000100240E6
:100CC0000429000870B52549002318468A68CC68B5
:100CD00012F00C0204F00306214C4FEA640509D01F
:100CE0000C2A05D0042A32D0082A00D1284670BD2B
:100CF000012E10D10B681B0704D4D1F89430C3F334
:100D0000032302E00B68C3F30313164E56F8233097
:100D1000DAB10C2AEBD1C86800F00300022818D021
:100D2000032818D01846CA68CB68C2F30212C3F36E
:100D300006234343521CB3FBF2F2C868C0F3416080
:100D4000401C4000B2FBF0F070BD184670BD20465C
:100D500070BD2046E7E72846E5E7000000100240A6
:100D60000024F400D42800082DE9F84304006FD0D3
:100D7000FE4DA86800F00C06E86800F00307207834
:100D8000C00664D576B10C2E01D1012F0AD0A0691E
:100D9000002828687AD040F001002860FFF72EFC78
:100DA00080465DE02868800702D5A0690028DED073
:100DB000216A2868000703D5286800F0F00004E0E5
:100DC000D5F89400F02202EA1010814216D90846A4
:100DD00000F0ECFE00283BD1286840F008002860B5
:100DE0002868216A20F0F000084328606868E169FB
:100DF00020F47F4040EA0120686016E0286840F057
:100E0000080028602868216A20F0F0000843286064
:100E10006868E16920F47F4040EA0120686026B9F3
:100E2000206A00F0C3FE0028D5D1FFF74BFFA96868
:100E3000CF4AC1F30311515C01F01F01C840CD49F5
:100E40000860CD480068FFF7FDFB00287ED12EE04A
:100E5000CAE000BFFFF7D2FBA0EB0800022876D85B
:100E600028688007F6D5286840F0080028602868C0
:100E7000216A20F0F000084328606868E16920F4E6
:100E80007F4040EA0120686011E0FFE720F00100A8
:100E90002860FFF7B3FB804606E000BFFFF7AEFB1C
:100EA000A0EB08000228DAD828688007F6D420785A
:100EB000C00740D0082E18D00C2E01D1032F14D01B
:100EC0006068B0F5803F17D0B0F5A02F286817D024
:100ED00020F480302860286820F480202860606832
:100EE000E0B1FFF78BFB804614E02868800322D531
:100EF0006068002878D01EE0286840F48030EDE774
:100F000040F480202860F7E7FFF778FBA0EB0800AB
:100F10006428A4D828688003F6D50CE0FFF76EFBA0
:100F2000804605E0FFF76AFBA0EB0800642896D82E
:100F300028688003F6D4207880073BD5042E11D092
:100F40000C2E01D1022F0DD0E06801E092E1F1E01A
:100F5000002828681ED040F480702860FFF74EFB00
:100F600007460CE0286840050CD5E0680028C1D091
:100F700008E000BFFFF742FBC01B022893D8286897
:100F80004005F7D56868217C20F0F85040EA016000
:100F900068600FE020F480702860FFF72FFB0746A1
:100FA00005E000BFFFF72AFBC01B0228B1D8286864
:100FB0004005F7D42078000729D560690028D5F8C6
:100FC000940012D040F00100C5F89400FFF716FB22
:100FD000074604E0FFF712FBC01B022899D8D5F89A
:100FE00094008007F6D512E000E120F00100C5F87A
:100FF0009400FFF703FB074605E000BFFFF7FEFA8A
:10100000C01B022885D8D5F894008007F6D4207834
:10101000400766D5A86D0027C00008D4A86D40F031
:101020008050A865A86D012700F0805000905348BB
:101030000168C90512D40168814641F480710160DC
:10104000FFF7DCFA804605E0FFF7D8FAA0EB0800CE
:1010500002286FD8D9F80000C005F5D5A06801288E
:1010600016D00528D5F8900017D020F00100C5F85B
:101070009000D5F8900020F0040000BFC5F8900063
:10108000A06841F28839C0B1FFF7B8FA80460FE096
:10109000D5F8900040F00100F0E740F00400C5F8FA
:1010A0009000F5E7FFF7AAFAA0EB0801494541D8FF
:1010B000D5F890008007F5D50EE0FFF79FFA80463F
:1010C00006E000BFFFF79AFAA0EB0801494531D8C6
:1010D000D5F890008007F5D41FB1A86D20F080509E
:1010E000A865A06A38B302280AD00C2E7ED02868E2
:1010F00020F080702860286810F0205F77D0AAE088
:10110000E868E26A00F0030191422BD1216B00F004
:10111000700209011039914224D1626B00F4FE4142
:10112000B1EB022F1ED1A26B00F40031072A03D0CD
:10113000012202E09DE089E00022914212D1A18FBC
:1011400000F4C00249084905A1F50011914209D1F6
:1011500094F8401000F0C06049084906A1F1007100
:1011600081425CD00C2E41D0286809E0001002407A
:10117000C42800080C00002004000020007000407B
:1011800040017ED42868C0007BD4286820F080709D
:101190002860FFF733FA064605E000BFFFF72EFA96
:1011A000801B022865D828688001F7D4D4E90B0198
:1011B0006FF00F0202EB01110843A18F520449089E
:1011C00002EB4151626B41EA0221084394F840105E
:1011D0004FF07E42490802EB41610843A16B0909C7
:1011E00040EA4140E968284A114001E049E02EE028
:1011F0000843E860286840F080702860E86840F0A4
:101200008070E860FFF7FAF9044604E0FFF7F6F9AA
:10121000001B02282DD828688001F7D52FE0286808
:1012200080012CD4286840F080702860E86840F085
:101230008070E860FFF7E2F9044604E0FFF7DEF9AA
:10124000001B022815D828688001F7D517E0E86848
:1012500020F00300E860E8680C490840E860FFF708
:10126000CDF9044608E000BFFFF7C8F9001B0228CB
:1012700002D90320BDE8F88328688001F4D4002057
:10128000F8E70120F6E700008C809DF9FFFFEEFEF5
:1012900010B5401EB0F1807F01D3012010BD4FF08A
:1012A000E02460610F21601701F09CF80020A0612C
:1012B00007202061002010BD10B5040002D0A06FEF
:1012C00010B107E0012010BD002084F87400204612
:1012D00000F026F82420A0672068016821F00101B1
:1012E0000160204600F0C8FD0128ECD0606A10B112
:1012F000204600F02FFD2068416821F490414160B4
:101300002068816821F02A0181602068016841F02D
:10131000010101602046BDE8104000F07FBD0000E3
:1013200010B586B0044614216846FEF786FF1349BF
:10133000206888421FD11248816D41F400318165D7
:10134000816D01F400310591C16C41F00101C1646E
:10135000C06C694600F0010005900C20009002204E
:1013600001900020029003200390072004904FF08A
:101370009040FEF7FDFF06B010BD000000440040A5
:10138000001002402DE9F8430446806F1F461646C0
:101390000D4620284FD1CDB1C6B194F87400012874
:1013A00049D0012084F874004FF00008C4F8808010
:1013B0002120A067FFF722F9A4F850608146A4F825
:1013C0005260A068B0F5805F03D004E00120BDE862
:1013D000F883206928B12E465FF0000584F87480F8
:1013E00010E00026FAE78021204600F069FEB8B937
:1013F000C6B116F8010B21680885B4F85200401EEA
:10140000A4F85200B4F852004B464FF00002009787
:101410000028E8D14FF04001204600F051FE30B1E5
:101420000320D4E735F8020BC0F30800E3E72020DF
:10143000A0670020CBE70220C9E7FEE710B5002037
:1014400000F0C4F800F00AFC002000F0DBF80220F5
:1014500001F0A8F8012000F0B9F8022001F0A2F88C
:10146000BDE81040002000F0B1B870B50D4604464C
:1014700000F058F9204600F013F900F0AFF92846C3
:1014800000F00EF900F0AAF900F04CF944F0010068
:1014900000F006F900F0A2F9002000F035F804464B
:1014A00000F06EF9204670BD70B515460E46044634
:1014B00000F038F9204600F0F3F800F08FF93046DC
:1014C00000F0EEF800F08AF9284600F0E9F800F0A4
:1014D00085F9BDE8704000F053B910B5002000F068
:1014E00075F800F0BBFB012000F08CF8022001F041
:1014F00059F8012000F06AF8022001F053F8BDE825
:101500001040002000F062B870B50646002400F0DC
:1015100093F80025002000F067F8022001F042F85F
:10152000012000F061F86006040E00F0B1F808B187
:10153000641CE4B2012001F035F86D1CEDB2082DF9
:10154000E8D34FF00000AEB100F04EF800F08AF89A
:101550005FF0000000F062F8022001F023F80120A3
:1015600000F042F8022001F01DF8002000F03CF8E5
:10157000204670BD00F038F800F074F80120E9E76B
:1015800070B50646002400F055FB0025002000F051
:101590001DF8022001F006F8012000F017F860069F
:1015A000040E00F041FB08B1641CE4B2012000F01D
:1015B000F9FF6D1CEDB2082DE8D31EB1FFF73EFF19
:1015C000204670BDFFF789FFFAE70000054B4FF496
:1015D0008061012803D000221846FFF709B80122D4
:1015E000FAE7000000040048054B4FF48071012821
:1015F00003D000221846FEF7FBBF0122FAE70000E5
:10160000000400484FF480714FF09043012803D04C
:1016100000221846FEF7ECBF0122FAE7054B4FF413
:101620000071012803D000221846FEF7E1BF012215
:10163000FAE700000004004800B585B014216846B0
:10164000FEF7FBFD4FF40070009000200190012098
:10165000029069460248FEF78BFE05B000BD00000F
:101660000004004800B585B014216846FEF7E5FD8A
:101670004FF4007000900120019002900020039030
:1016800069460248FEF774FE05B000BD000400483C
:101690004FF400710148FEF79EBF000000040048AF
:1016A00070B50546FFF7DEFF0020FFF79DFF002421
:1016B000E809FFF7B3FF6806050E022000F072FF8D
:1016C0000120FFF791FF022000F06CFF0020FFF7E0
:1016D0008BFF022000F066FF641CE4B2082CE7D305
:1016E00070BD70B5054600F0B9FA0020FFF76EFF37
:1016F0000024E809FFF786FF6806050E022000F0C7
:1017000051FF0120FFF762FF022000F04BFF002095
:10171000FFF75CFF022000F045FF641CE4B2082CD8
:10172000E7D370BD10B5FFF79DFF0120FFF776FFEF
:101730000120FFF759FF042000F034FF0020FFF7DD
:101740006DFF042000F02EFFBDE810400020FFF7E1
:101750004BBF10B500F082FA0120FFF753FF0120C4
:10176000FFF734FF042000F01DFF0020FFF74AFFC1
:10177000042000F017FFBDE810400020FFF726BF4F
:1017800010B5FFF76FFF0020FFF72EFF0020FFF7D7
:1017900045FF042000F006FF0120FFF725FF012090
:1017A000FFF73CFFBDE81040042000F0FBBE10B581
:1017B00000F054FA0020FFF709FF0020FFF722FF96
:1017C000042000F0EFFE0120FFF700FF0120FFF7EB
:1017D00019FFBDE81040042000F0E4BE10B500245D
:1017E000FFF72AFF0120FFF719FF012000F0DAFEC2
:1017F0000120FFF7F9FE012000F0D4FE07E0641C91
:10180000E4B2FA2C03D9FFF7BBFF012010BDFFF7AC
:101810003FFF0028F3D1FFF7E7FE002010BD10B511
:10182000002400F007FA0120FFF7ECFE012000F091
:10183000B9FE0120FFF7CAFE012000F0B3FE07E069
:10184000641CE4B2FA2C03D9FFF7B1FF012010BDEC
:1018500000F0EAF90028F3D1FFF7B8FE002010BD30
:101860002DE9F04186B014216846FEF7E6FC2D48CC
:10187000C16C41F00401C164C16C01F00401059127
:10188000C16C41F08001C164C16C01F0800105911F
:10189000C16C41F00101C164C16C01F0010105910D
:1018A000C16C41F00201C164C06C4FF4B07500F02E
:1018B00002004FF090470590002229463846FEF777
:1018C00097FEDFF864804FF4E06600223146404620
:1018D000FEF78EFE4FF40050009014480024CDE92E
:1018E000010469461248FEF743FD00950125CDE944
:1018F0000154694638460394FEF73AFD0096CDE957
:101900000154694640460394FEF732FD002203214C
:101910002820FEF7DDFE2820FEF7CCFE06B0BDE84D
:10192000F081000000100240000400480000211077
:10193000000800480D4810B50B4901604FF4E13133
:101940004160002181600C22C160C0E90412816104
:10195000C16101624162FFF7AFFC002803D0BDE81E
:101960001040FEF7C9BC10BD00440040100000202C
:10197000FEE7FEE7704700002DE9F041444C0546C4
:101980008846E0680026810728680DD0E16801F0EC
:101990000301814216D1A8B1E0686968C0F3021062
:1019A000401C88420ED120E0012804D0022805D036
:1019B000032807D108E02168890701E0216849056B
:1019C000002907DB01265FE02168890302D4216832
:1019D0004903F5E7E1686A686FF00F0321F07301CE
:1019E00003EB021211430143E160206820F08060A4
:1019F0002060FEF703FE074605E000BFFEF7FEFD90
:101A0000C01B022837D820680001F7D4B8F1000FB6
:101A100018D0B8F1010F1ED0287D4FF07E4140084C
:101A200001EB4060A96840EA01202169194A114090
:101A300008432061206840F080602060FEF7DEFDF2
:101A400007461AE0A868E9680002090940EA41402F
:101A50002169114AEBE7288A1049400801EB405000
:101A6000A96840EA012021690D4AE0E7FEF7C6FDBA
:101A7000C01B022801D9032606E020680001F5D525
:101A80002069A969084320613046BDE8F081000063
:101A900000100240FF80FFF9FF80FDFF0000E0FF23
:101AA000FF809FFF2DE9F0413D4C06468846E068E7
:101AB0000025810730680DD0E16801F00301814203
:101AC00016D1A8B1E0687168C0F30210401C8842CA
:101AD0000ED120E0012804D0022805D0032807D128
:101AE00008E02168890701E021684905002907DB32
:101AF000012551E02168890302D421684903F5E7F3
:101B0000E16872686FF00F0321F0730103EB0212BA
:101B100011430143E160206820F080502060FEF70F
:101B20006DFD074605E000BFFEF768FDC01B0228FB
:101B300029D820688000F7D4B8F1000F15D0307C88
:101B40004FF07E41400801EB4060B16840EA01205F
:101B50006169144A114008436061206840F0805078
:101B60002060FEF74BFD07460FE0B068F168000209
:101B7000090940EA414061690B4AEBE7FEF73EFD87
:101B8000C01B022801D9032506E020688000F5D596
:101B900060697169084360612846BDE8F081000012
:101BA00000100240FF80FFF9FF80FDFFF8B51C4DDB
:101BB00006460024A86DC00002D5FEF7EFFD0DE03B
:101BC000A86D40F08050A865A86D00F0805000908E
:101BD000FEF7E4FDA96D21F08051A965B0F5007F05
:101BE00004D0802E07D94FF003040AE0802E08D9D4
:101BF000A02E01D804E001D1022402E0702E00D111
:101C000001240848016821F00701214301600068B0
:101C100000F00700A04201D00120F8BD0020F8BD6F
:101C200000100240002002404FF480714FF09040BD
:101C3000FEF7D1BC00B585B014216846FEF7FDFA69
:101C40004FF48070009000200190012002906946BE
:101C50004FF09040FEF78CFB05B000BD00B585B09D
:101C600014216846FEF7E9FA4FF4807000900120D5
:101C7000019002900020039069464FF09040FEF7DB
:101C800077FB05B000BD7047FEF7BEBC30B5B9B0FC
:101C9000442122A8FEF7D1FA142133A8FEF7CDFA89
:101CA00088216846FEF7C9FA0224E0012590102039
:101CB000229426902C940120CDE92D400A202F90CB
:101CC0000720CDE9300422A83294FFF74DF808B17F
:101CD00072B6FEE70F20002533900320CDE93405CE
:101CE0003695042133A83795FEF738FF08B172B650
:101CF000FEE70F9568460094FEF758FD08B172B6EE
:101D0000FEE74FF40070FEF715FD002801D072B613
:101D1000FEE739B030BD00000B48016841F47001A6
:101D200001600A48016841F0010101600021816001
:101D30000268074B1A4002608214C260026822F4F3
:101D4000802202608161704788ED00E0001002404F
:101D5000FFFFF6EA90F82410C90706D001684A6828
:101D6000836A22F400321A434A6090F824108907EB
:101D700006D501684A68C36A22F480321A434A6071
:101D800090F82410490706D501684A68036B22F4CD
:101D900080221A434A6090F82410090706D501688A
:101DA0004A68436B22F400421A434A6090F82410B8
:101DB000C90606D501688A68836B22F480521A43EB
:101DC0008A6090F82410890606D501688A68C36B7A
:101DD00022F400521A438A6090F82410490611D563
:101DE00001684A68036C22F480121A434A60016C4D
:101DF000B1F5801F06D101684A68436C22F4C00225
:101E00001A434A6090F82410090606D501684A680A
:101E1000806C22F4002202434A607047F8B5002625
:101E20000446C0F88060FEF7E9FB054620680068BC
:101E30006FF07E47000708D52B4600224FF40011B3
:101E40002046009700F03CF960B920680068400720
:101E50000AD52B4600224FF480012046009700F05F
:101E60002FF908B10320F8BD2020A067E06726669F
:101E700084F874600020F8BD2DE9F0410446016843
:101E800080682269E3691043626900251A431043A0
:101E9000814F0A68814B1A4002430A6020684168FA
:101EA000E26821F44051114341602168A069B942C0
:101EB00001D0226A10438A6822F4306202438A60A9
:101EC0007749226877488A420DD1D0F8880010F00F
:101ED000030006D0012866D0022854D0032851D12F
:101EE00063E001204FE070498A420BD1D0F88800AE
:101EF00010F00C0047D0042845D0082851D00C28F9
:101F000040D152E069498A420BD1D0F8880010F0E4
:101F1000300038D0102846D0202842D0302831D187
:101F200043E063498A420BD1D0F8880010F0C0002A
:101F300029D0402837D0802833D0C02822D134E09F
:101F40005C498A420ED1D0F8880010F440701AD053
:101F5000B0F5807F27D0B0F5007F22D0B0F5407F6C
:101F600010D122E0BA420DD1D0F8880010F44060C0
:101F700009D0B0F5806F16D0B0F5006F11D0B0F574
:101F8000406F12D010204C4900264FF40043BA4253
:101F90002CD160B102280DD004280DD008286FD1B3
:101FA0000EE00220EFE70420EDE70820EBE7FEF764
:101FB00065FE03E00B4603E0FEF784FE030066D0F7
:101FC000626802EB420098425AD8B3EB023F57D8FE
:101FD000190E1B025008181871410023FEF7F2F881
:101FE000364AA0F5407191424FD949E0E2694FF677
:101FF000EF779A4228D1092842D2DFE800F005089D
:102000000D41224141410E00FEF738FE01E0FEF78E
:1020100047FE030001D13AE00B466068590001EB2E
:102020005001B1FBF0F080B2A0F11001B94227D805
:102030004FF6F0710140C0F3420001432068C160D7
:1020400025E0FEF73FFEE4E7092819D2DFE800F0BB
:1020500005080D181A1818180E00FEF70FFE01E0FB
:10206000FEF71EFE030001D111E00B46606803EB92
:102070005001B1FBF0F080B2A0F11001B94204D9D7
:10208000012504E0FEF71EFEECE72168C8606666E5
:102090002846A666BDE8F08100800040F369FFEFA6
:1020A0000038014000100240004400400048004059
:1020B000004C0040005000400024F400FFFC0F00E2
:1020C0002DE9F0479A4617460E4604464FF00009A0
:1020D0004FF02008089D39E0681C37D0FEF78EFAD3
:1020E000A0EB0A00A84222D80DB320680168490776
:1020F0002CD5C069C043000528D421684FF4006086
:1021000008622068016821F4D0710160206881684C
:1021100021F001018160C4F87880C4F87C80C4F8A3
:10212000808000BF84F874900320BDE8F0872068A9
:10213000016821F4D07101602068816821F00101FB
:102140008160C4F87880C4F87C80EBE72068C069BF
:1021500036EA000004D00020B842BDD00020E4E7F9
:102160000120F9E7FEE710B500F0D4F8B42801D05B
:10217000012010BD012140F2072000F0FBF80121F1
:102180004FF4027000F0F6F80021962000F0F2F80B
:10219000FD21972000F0EEF80021E32000F0EAF89E
:1021A0000421E42000F0E6F80221E52000F0E2F846
:1021B0000121E62000F0DEF80321E72000F0DAF844
:1021C0000221F52000F0D6F80521D92000F0D2F840
:1021D000CE21DB2000F0CEF80321DC2000F0CAF88D
:1021E000F821DD2000F0C6F800219F2000F0C2F8A1
:1021F0003C21A32000F0BEF80021B72000F0BAF87F
:102200003C21BB2000F0B6F80921B22000F0B2F862
:102210000921CA2000F0AEF801214FF4CC7000F083
:10222000A9F817214FF4D87000F0A4F8002140F26B
:10223000AD1000F09FF80521FF2000F09BF805216C
:102240004FF4807000F096F8052140F2991000F0EC
:1022500091F81B214FF4D37000F08CF83E214FF41D
:10226000D67000F087F81F2140F2A71000F082F826
:102270000021302000F07EF81021112000F07AF8C3
:1022800030214FF4857000F075F846213F2000F0B2
:1022900071F8FF21312000F06DF86321402000F03B
:1022A00069F801212E2000F065F809211B2000F0BB
:1022B00061F831213E2000F05DF82421142000F067
:1022C00059F8002010BD70B5040AC5B2FFF741FAF5
:1022D0005220FFF706FAFFF7A2FAC8B92046FFF727
:1022E00000FAFFF79CFA98B92846FFF7FAF9FFF7CA
:1022F00096FA68B9FFF72DFA5320FFF7F2F9FFF7C6
:102300008EFA28B90020FFF73BF90646FFF74FFA8F
:10231000304670BD0020FFF7D6BF10B54D20FFF747
:10232000D2FFC007FAD0022000F02EF901211820B8
:1023300000F020F8022000F027F906E04F20FFF718
:10234000C2FF400701D5FF2010BD4F20FFF7BBFFA4
:102350004007F3D56220FFF7B6FF0446022000F0E5
:1023600013F90721152000F005F8022000F00CF900
:10237000204610BD70B50E46040AC5B2FFF7E9F954
:102380005220FFF7AEF9FFF74AFA78B92046FFF777
:10239000A8F9FFF744FA2846FFF7A3F9FFF73FFA39
:1023A0003046FFF79EF9FFF73AFA18B1FFF7FFF949
:1023B000012070BDFFF7FBF9002070BD0FB4084B82
:1023C00010B504A902AA039800F02CF8044602A94B
:1023D000002000F0D4F8204610BC5DF814FB00008B
:1023E0007F2500080907090E002804DB00F1E02022
:1023F00080F80014704700F00F0000F1E02080F832
:10240000141D704702E008C8121F08C1002AFAD143
:1024100070477047002001E001C1121F002AFBD164
:10242000704700002DE9FF4F89B09B460446002508
:1024300006E025280BD05A460B999047641C6D1C6A
:1024400020780028F5D10DB0284600F095B8002777
:10245000B8460122474900E0074314F8013F203BFA
:1024600002FA03F00842F7D120782E2819D114F887
:10247000010F47F004072A280ED06FF02F022078B2
:10248000A0F1300109290CD808EB880102EB4101C9
:1024900000EB0108641CF2E70A98641C50F8048BF6
:1024A0000A9020780028CED0642808D0692806D069
:1024B00075281ED05A460B9990476D1C58E00A9912
:1024C0004FF00A0901C90A91002802DA40422D2181
:1024D00002E0390504D52B218DF82010012103E0FD
:1024E000F90704D02021F7E78A4608AE0DE0002165
:1024F000FAE70A994FF00A0901C90A91F7E7494634
:10250000FDF7ADFE303106F8011D0028F7D1ADEB27
:10251000060000F12009780701D44FF00108C845F2
:1025200002DDA8EB090000E000208046002706E05D
:1025300008A85A46C05D0B9990476D1C7F1C5745F3
:10254000F6DB04E030205A460B9990476D1CB8F139
:102550000001A8F10108F5DC05E016F8010B5A4668
:102560000B9990476D1CB9F10001A9F10109F4DC48
:10257000641C65E70928010030BCBDE8C08F0A680B
:10258000531C0B601070704770B5054600244FF463
:102590007A7603E0304600F005F8641CAC42F9D3CB
:1025A00070BD00002DE9F0414FF0E0240546A76919
:1025B000FEF724F8064605EB85000501BD420BD960
:1025C000FEF71CF8B042FBD00849781B0844A1690B
:1025D0008142FCD8BDE8F0817D1BA069A842F9D9F1
:1025E000FEF70CF8B042F8D0F4E7000080380100A4
:1025F000B4B0FEF711F8FFF749FBFFF731F9FFF729
:1026000099F900F01DF9FFF7AEFD4FF6FF752B4667
:102610000B2221A12348FEF7B5FEFFF7A4FD28B940
:102620002B46142220A11F48FEF7ACFE234C642148
:1026300001A8FDF702FE64211AA8FDF7FEFDFFF7D1
:102640006CFEC2B21EA101A8FFF7B8FE01A8FDF7FB
:10265000FFFD82B22B4601A91248FEF793FE6420CB
:10266000FDF74CFE00F012F900F06EF8208B0090A0
:10267000E38AA28A15A11AA8FFF7A0FE1AA8FDF7FF
:10268000E7FD82B22B461AA90648FEF77BFE6420BE
:10269000FDF734FECBE700000D0A564C36313830DA
:1026A000580D0A00100000200D0A564C3631383003
:1026B0006368656E67676F6E670D0A00940000209F
:1026C000200D0A202564206D6D00000020202020B0
:1026D000202020202020205B25642C25642C2564CC
:1026E0005D0D0A002DE9F84300214FF0520807461E
:1026F00002256E460C460091FFF714F84046FEF79F
:10270000CFFFFFF76BF83846FEF7CAFFFFF766F812
:10271000FFF708F85320FEF7C3FFFFF75FF86F1EBF
:10272000BC4204D10020FEF7EFFE305506E0012048
:10273000FEF7EAFE3055641CAC42F1DBFFF720F8EF
:10274000BDF80000BDE8F88330B53C48FF24B7EE83
:10275000000A428882828188C182C38803838A42B8
:1027600004D39A4202D3B2FBF4F50CE0914204D3B5
:10277000994202D3B1FBF4F505E08B4208D39342B2
:1027800006D3B3FBF4F56D1C00EE105AB8EE400A08
:10279000B5EEC00AF1EE10FA20D000EE902AF8EE65
:1027A000600A80EE801AFCEEC10A10EE902A00EE5C
:1027B000901A8282F8EE600A80EE801AFCEEC10A5E
:1027C00010EE901A00EE903AC182F8EE600A80EEA8
:1027D000801ABCEEC10A10EE101A0183818A1E29EC
:1027E00001D91E398182C18A1E2901D91E39C182AF
:1027F000018B1E2901D91E390183818AE122C1EB97
:102800000121B1FBF2F189B28182C38AFF29C3EBB6
:102810000323B3FBF2F39BB2C382058BC5EB052503
:10282000B5FBF2F292B2028300D98482FF2B00D969
:10283000C482FF2A00D9048330BD00009400002028
:1028400010B592215220FEF710FE442801D000203E
:1028500010BD9C2281215220FEF726FE03228F21EB
:102860005220FEF721FE012280215220FEF71CFE9D
:102870006420FDF743FD032280215220FEF714FE61
:102880006420FDF73BFD012010BD000010B5932131
:102890005220FEF7EAFDC00711D09420FFF722FF77
:1028A000074C20809620FFF71DFF60809820FFF7DF
:1028B00019FFA0809A20FFF715FFE080012010BDCE
:1028C000940000200000000000000000010203044A
:1028D00006070809A0860100400D0300801A0600C3
:1028E00000350C0040420F0080841E0000093D00AE
:1028F00000127A000024F40000366E010048E8015E
:10290000006CDC0200000000010203042C29000816
:102910000000002010000000042400083C290008EA
:1029200010000020A0040000142400080100000092
:0C293000100000000000000000093D0045
:040000050800018965
:00000001FF
